:10000000B0C00000CDC00000CBC00000C9C00000DF
:10001000C7C00000C5C00000C3C00000C1C00000D0
:10002000BFC00000BDC0000034C300006AC30000B0
:10003000B7C00000B5C00000B3C00000FBC40000A2
:10004000AFC00000ADC00000ABC00000A9C0000000
:10005000A7C00000A5C00000A3C00000A1C0000010
:100060009FC000009DC000009BC0000099C0000020
:1000700097C0000095C0000093C0000091C0000030
:100080008FC000008DC000008BC0000089C0000040
:1000900087C0000085C0000000010000D1001200F0
:1000A000020000E30029002200000C011C002100D6
:1000B00000F5000900030000280104010309042CD5
:1000C00001220203090450011001C12601C02600CB
:1000D000001201000200000020C01680040001018F
:1000E00002000109022900010100C03209040000D8
:1000F0000203000000092111010001221C00070574
:1001000081032000020705020320000806ABFF0A56
:100110000002A1017508150026FF00952009018144
:1001200002952009029102C004030904220352002F
:1001300075006500640069005F00480065006900A3
:100140006D006C00690063006800650072000000CB
:10015000100343004E0043005F005500530042006F
:10016000000011241FBECFEFD0E2DEBFCDBF11E0F3
:10017000A0E0B1E0E2E0F8E100E00BBF02C00790D0
:100180000D92AA34B107D9F712E0AAE4B1E001C098
:100190001D92A433B107E1F70E94DB080C94FF0B1A
:1001A0002FCF8F9820E030E04AE687FF02C08D9A7B
:1001B00001C08D988F9A942F9A95F1F78F982F5FA1
:1001C0003F4F2830310511F0880FEFCF08958D98FB
:1001D0008E9A88E097E00197F1F78E9888EC90E08E
:1001E0000197F1F70895EF92FF920F931F93082F55
:1001F000F62EE42E8CE291E020E931E0F90131970E
:10020000F1F70197D9F780E3CCDFE1DF80E49CE9E7
:100210000197F1F780E3C5DFDADF8AE68A95F1F727
:1002200080E3BFDFD4DF80E892E00197F1F7802F11
:10023000B8DFCDDF88E0B5DFCADF81E0B2DFC7DF3E
:1002400000E81EE3C8010197F1F78F2DAADFBFDF99
:10025000C8010197F1F78E2DA4DFB9DF80E991E0A5
:1002600020E931E0F9013197F1F70197D9F71F91B2
:100270000F91FF90EF9008958D9A8E9A88E097E005
:100280000197F1F78E9888EC90E00197F1F70895C7
:1002900088DFF2CFCF93DF93EC0101C0F9DF8991C2
:1002A0008823E1F7DF91CF910895662311F48058F8
:1002B00001C0805476DF8BCF0F931F9381E071DFF5
:1002C00086DF00E01FE0C8010197F1F7C801019740
:1002D000F1F782E066DF7BDFC8010197F1F7C80123
:1002E0000197F1F71F910F9108950F931F93082F16
:1002F00080E0602FDADF10E080E2CADF1F5F143198
:10030000D9F780E0602FD1DF80E09FE0FC013197DA
:10031000F1F70197F1F71F910F91089581E880930C
:10032000D70080EA8093D80086E189BD09B400FE39
:10033000FDCF80E98093D8001092E0001092AD01CB
:100340008CE08093E20078940895DC018091AD0107
:10035000882309F4CAC09FB7F8946093AE0182E085
:100360008093E90022E08091E80085FD10C09FBFE6
:100370008091AE01882309F4B9C08091AD01882332
:1003800009F4B3C09FB7F8942093E900ECCF8091B3
:10039000F100FD0181938091F10011968C93DF01B2
:1003A00011968091F1008183FD0131968091F100D9
:1003B00011968C93DF0111968091F1008183FD01EC
:1003C00031968091F10011968C93DF011196809106
:1003D000F1008183FD0131968091F10011968C939B
:1003E000DF0111968091F1008183FD0131968091AA
:1003F000F10011968C93DF0111968091F1008183B9
:10040000FD0131968091F10011968C93DF011196D8
:100410008091F1008183FD0131968091F100119668
:100420008C93DF0111968091F1008183FD0131965B
:100430008091F10011968C93DF0111968091F1006B
:100440008183FD0131968091F10011968C93DF013B
:1004500011968091F1008183FD0131968091F10028
:1004600011968C93DF0111968091F1008183FD013B
:1004700031968091F10011968C93DF011196809155
:10048000F1008183FD0131968091F10011968C93EA
:10049000DF0111968091F1008183FD0131968091F9
:1004A000F10011968C93DF0111968091F100818308
:1004B000FD0131968091F10011968C93DF01119628
:1004C0008091F1008183FD0131968091F1001196B8
:1004D0008C938091F10081838091F10082838BE67F
:1004E0008093E8009FBF80E208958FEF0895DC01BC
:1004F0008091AD01882309F4CAC09FB7F894609336
:10050000AF0181E08093E90021E08091E80085FD62
:1005100010C09FBF8091AF01882309F4B9C08091BA
:10052000AD01882309F4B3C09FB7F8942093E90084
:10053000ECCFFD0181918093F10011968C91809315
:10054000F100DF01119681818093F100FD01319668
:1005500011968C918093F100DF0111968181809337
:10056000F100FD01319611968C918093F100DF012D
:10057000119681818093F100FD01319611968C9145
:100580008093F100DF01119681818093F100FD01DC
:10059000319611968C918093F100DF011196818143
:1005A0008093F100FD01319611968C918093F100BA
:1005B000DF01119681818093F100FD013196119642
:1005C0008C918093F100DF01119681818093F1007D
:1005D000FD01319611968C918093F100DF01119607
:1005E00081818093F100FD01319611968C91809369
:1005F000F100DF01119681818093F100FD013196B8
:1006000011968C918093F100DF0111968181809386
:10061000F100FD01319611968C918093F100DF017C
:10062000119681818093F100FD01319611968C9194
:100630008093F100DF01119681818093F100FD012B
:10064000319611968C918093F100DF011196818192
:100650008093F100FD01319611968C918093F10009
:10066000DF01119681818093F100FD013196119691
:100670008C918093F10081818093F100828180933D
:10068000F1008AE38093E8009FBF80E208958FEF36
:1006900008951F920F920FB60F9211248F939F937C
:1006A0008091E1001092E100982F93FF0FC010920B
:1006B000E90081E08093EB001092EC0082E28093ED
:1006C000ED0088E08093F0001092AD0192FF12C01F
:1006D0008091AD01882371F08091AE01882319F0DB
:1006E00081508093AE018091AF01882319F0815031
:1006F0008093AF019F918F910F900FBE0F901F902D
:1007000018951F920F920FB60F920BB60F921124ED
:100710000F931F932F933F934F935F936F937F9309
:100720008F939F93AF93BF93EF93FF931092E90042
:100730008091E80083FF3AC14091F1003091F100CF
:100740008091F100A82FB0E02091F100922F80E07D
:10075000A82BB92B8091F100682F70E02091F10057
:10076000922F80E0682B792B1091F1000091F1001D
:1007700082EF8093E800363009F05AC02FE930E06C
:10078000A90145505040F9013797859194918A17F6
:100790009B0701F5FA018591949186179707D1F48B
:1007A0009A012E5F3F4FF901659174912E5F3F4F83
:1007B000F9014491212F30E0902F80E0282B392B34
:1007C0002F3F310519F010F02FEF30E0241758F4C7
:1007D000422F09C0295F3F4F495F5F4FF0E0203D46
:1007E0003F0789F6E3C05EEF8091E800282F30E0F4
:1007F000C90185709070892BB9F322FDDAC0342FBE
:10080000413208F030E2232FCB0106C0FC010196F3
:10081000E491E093F10021502223C1F7630F711D91
:10082000431B5093E8004423F9F63032E9F2C1C08B
:10083000353061F48EEF8093E8008091E80080FF0E
:10084000FCCF8A2F80688093E300B3C0393031F544
:10085000442309F072C0A093AD018EEF8093E800AD
:1008600089EC90E021E02093E900FC010196E491FD
:10087000E093EB00EE2369F0AC014F5F5F4FFC01AA
:1008800084918093EC00CA010196FA01349130936F
:10089000ED002F5F253039F78EE14AC0383061F422
:1008A000403809F04AC08091E80080FFFCCF809179
:1008B000AD018093F10076C03323D1F48091E8003C
:1008C00080FFFCCF423811F080E00DC06093E9005A
:1008D0008091EB0090E0F5E096958795FA95E1F729
:1008E00081701092E9008093F1001092F1005AC0DB
:1008F000313011F0333009F54230F9F4AB2BE9F423
:10090000262F2F77822F81508430B8F48EEF80937A
:10091000E8002093E900333009F448C089E180936E
:10092000EB0081E090E002C0880F991F2A95E2F762
:100930008093EA001092EA003CC0672BB9F5413A77
:1009400011F5313099F540E25EEF8091E800282FF3
:1009500030E0C90185709070892BB9F322FD29C060
:10096000942F413208F090E2892F03C01092F100D9
:1009700081508823D9F7491B5093E800442329F775
:10098000903219F316C0413289F4393079F48091EC
:10099000E80082FFFCCF8BEF8093E8008091E800B5
:1009A00080FFFCCF8EEF8093E80003C081E280934C
:1009B000EB00FF91EF91BF91AF919F918F917F914C
:1009C0006F915F914F913F912F911F910F910F90D8
:1009D0000BBE0F900FBE0F901F901895389A409A3B
:1009E000399A419A3A9A429A3B9A439A3C9A449A43
:1009F0003D9A459A209A289A219A419A229A2A9AAF
:100A0000239A2B9A249A2C9A259A2D9A8098889A20
:100A1000859A869A879A4698469A4798479A26983A
:100A20002E9A27982F9A569A5E9A579A5F98549AB8
:100A30005C9808951F920F920FB60F9211248F9316
:100A40009F93809160019091610101969093610163
:100A50008093600180916001909161010E97A0F1F7
:100A60008091500190915101019690935101809392
:100A7000500180915201909153010196909353013E
:100A80008093520180915401909155010196909369
:100A90005501809354018091560190915701019620
:100AA000909357018093560180914F01882331F034
:100AB0008091AB018F5F8093AB0102C01092AB01BC
:100AC00010926101109260018AE08093B2009F91C0
:100AD0008F910F900FBE0F901F901895FC01818988
:100AE00081FF02C042E002C0482F41701092AC0169
:100AF000429810925101109250012081918197FFEC
:100B000007C08091AC0181608093AC01419806C020
:100B10008091AC018E7F8093AC01419A9F77892FA1
:100B200090E09093590180935801809158019091E1
:100B30005901982F882790935901809358018091EB
:100B4000580190915901820F911D90935901809302
:100B500058012481858190E090931E0180931D01AE
:100B600080911D0190911E01982F882790931E015E
:100B700080931D0180911D0190911E01820F911D96
:100B800090931E0180931D01109253011092520107
:100B900045982281938197FF07C08091AC018260C4
:100BA0008093AC01449806C08091AC018D7F809306
:100BB000AC01449A9F77892F90E090935B018093DA
:100BC0005A0180915A0190915B01982F8827909348
:100BD0005B0180935A0180915A0190915B01820FD1
:100BE000911D90935B0180935A01978180E026814B
:100BF000820F911D9093200180931F012A981092DB
:100C00005501109254012085918597FF07C080916E
:100C1000AC0184608093AC01299806C08091AC013E
:100C20008B7F8093AC01299A9F77892F90E09093D6
:100C30005D0180935C0180915C0190915D01982F32
:100C4000882790935D0180935C0180915C01909175
:100C50005D01820F911D90935D0180935C0124855D
:100C6000858590E09093220180932101809121015C
:100C700090912201982F882790932201809321013F
:100C80008091210190912201820F911D9093220168
:100C9000809321012D9810925701109256012285C0
:100CA000938597FF07C08091AC0188608093AC0169
:100CB0002C9806C08091AC01877F8093AC012C9A60
:100CC0009F77892F90E090935F0180935E018091E0
:100CD0005E0190915F01982F882790935F01809328
:100CE0005E0180915E0190915F01820F911D909352
:100CF0005F0180935E012685878590E090932401B3
:100D0000809323018091230190912401982F8827BB
:100D100090932401809323018091230190912401D9
:100D2000820F911D90932401809323011092A301BF
:100D3000209158013091590180915A0190915B01A5
:100D400082179307D0F42091580130915901809176
:100D50005C0190915D018217930748F5209158013D
:100D60003091590180915E0190915F018217930744
:100D700068F58091A30181602CC020915A013091C7
:100D80005B0180915C0190915D018217930778F47B
:100D900020915A0130915B0180915E0190915F0139
:100DA0008217930798F48091A301826012C020916A
:100DB0005C0130915D0180915E0190915F0182172D
:100DC000930720F48091A301846003C08091A30164
:100DD00088608093A301842F0895CF93DF93E82F39
:100DE0008091AC01CE2FD0E090E00E2E02C0959500
:100DF00087950A94E2F7BE016C5F7F4F80FFDAC0EF
:100E00008091A90190E0062E02C0959587950A94DD
:100E1000E2F780FDE7C0F8948091A90141E050E03D
:100E20009A0102C0220F331F6A95E2F7822B80934A
:100E3000A9018091AA0183FF47C0EB54E09382018E
:100E4000E55B2091AA01CA010C2E02C0880F991FF0
:100E50000A94E2F7282B2093AA01BE016E5F7F4F10
:100E6000E230C8F488B102C0440F551F6A95E2F71A
:100E7000842B88B9109259011092580110925B018D
:100E800010925A0110925101109250011092530188
:100E90001092520166C085B102C0440F551F6A9579
:100EA000E2F7842B85B910925D0110925C011092DB
:100EB0005F0110925E011092550110925401109240
:100EC0005701109256014DC01092AA01EB55E093C4
:100ED0008201E55ABE016E5F7F4FE23060F488B157
:100EE00002C0440F551F6A95E2F7842B88B985B17B
:100EF000282B25B912C085B19A0102C0220F331FD9
:100F00006A95E2F7822B85B988B10C2E02C0440F96
:100F1000551F0A94E2F7842B88B910925901109258
:100F2000580110925B0110925A0110925D011092CB
:100F30005C0110925F0110925E01109251011092BB
:100F400050011092530110925201109255011092CB
:100F5000540110925701109256011092A60110925E
:100F6000A3018091A4019091A501809387018091B4
:100F7000A601809388018091AA018093890182E86B
:100F800091E062E3B4DA109282011092870110922C
:100F90008801109289012091AC0181E090E002C0AB
:100FA000880F991FCA95E2F7809582238093AC0140
:100FB000789418C08091A90190E0062E02C0959502
:100FC00087950A94E2F780FD0DC02091A90181E088
:100FD00090E002C0880F991F6A95E2F780958223FE
:100FE0008093A901DF91CF9108951F93182F28B105
:100FF000682F70E06E5F7F4F41E050E0CA01062E1F
:1010000002C0880F991F0A94E2F762507040982F2F
:10101000282B28B98091AA01123060F488B1892B5D
:1010200088B9109259011092580110925B011092E8
:101030005A0111C085B1062E02C0440F551F0A94F3
:10104000E2F7842B85B910925D0110925C01109239
:101050005F0110925E0188B1982B98B910925901E6
:101060001092580110925B0110925A011092510196
:1010700010925001109253011092520125B141E09B
:1010800050E0CA01062E02C0880F991F0A94E2F7A9
:10109000282B25B910925D0110925C0110925F011E
:1010A00010925E0110925501109254011092570156
:1010B000109256012091A4013091A5018091250143
:1010C0009091260128173907D1F51092A20190912D
:1010D000A9016C5F7F4F02C0440F551F6A95E2F76C
:1010E000842F809589238093A9011092A30116551E
:1010F000109382018091A4019091A50180938301B6
:101100008091A4019091A501809387018091A6010F
:10111000809388018091AA018093890182E891E0FF
:1011200062E3E5D910928201109283011092870147
:1011300010928801109289011092A6013AC0809104
:10114000A601837021E2829FC001112480559E4F29
:10115000C5DC823049F48091A4019091A50190935F
:1011600026018093250117C08091A4019091A501CB
:10117000809387018091A601809388011056109377
:10118000820182E891E062E3B2D91092820110926A
:101190008701109288018091A6018F5F8093A6013C
:1011A0008091A7019091A80101969093A801809346
:1011B000A7011F9108956F927F928F929F92AF9295
:1011C000BF92CF92DF92EF92FF920F931F93CF9334
:1011D000DF9380E880936100109261009FD8809136
:1011E000AD018823E1F380E197E220E931E0F901E4
:1011F0003197F1F70197D9F77894F0DB88E366E04F
:101200004CE00E94F30084E091E044D884E690E052
:1012100020E03FE0F9013197F1F70197D9F74CD879
:101220008FE091E037D884E191E034D881E05DD857
:101230001092B2008091B10081608093B1008091E2
:1012400070008160809370001092B0007894EE245A
:10125000FF2400E413E3B12EB1EEAB2EAFEA9A2ED9
:10126000CC24CA94DC2CF4E48F2EE5E47E2E75EEBB
:10127000672E0894E11CF11C8FEFE8168FEAF80640
:1012800029F48BB180278BB9EE24FF2482E691E00C
:1012900060E05BD818160CF054C1F89410917201FC
:1012A00010938701B092820182E891E062E31FD936
:1012B000109282011092870110928801103E21F055
:1012C000143E09F052C041C01092A2011092A30135
:1012D000A09282018091A4019091A5018093870141
:1012E0008091A6018093880182E891E062E3FFD8B3
:1012F0001092820110928701109288011092A6012B
:101300001092A8011092A701109259011092580151
:1013100010925B0110925A0110925D0110925C01D3
:1013200010925F0110925E011092510110925001D3
:1013300010925301109252011092550110925401D3
:101340001092570110925601FBC080916A018823C8
:1013500011F05C9A01C05C98609282011092820147
:101360001092870110928801EBC080917401209146
:101370007501D82FC0E0D093A501C093A40180913E
:10138000A4019091A501820F911D9093A5018093D6
:10139000A4018091760180934F018091A4019091E6
:1013A000A501892B09F052C040E050E00FC0F901BF
:1013B000E80FF91FE055FE4F10820196803291052B
:1013C000B1F74F5F5F4F4430510559F080E090E036
:1013D0009A0165E0220F331F6A95E1F7240F351F4C
:1013E000E6CF1092A601D0922601C092250110925C
:1013F000A9011092A3011092A2018091A20180681C
:101400008093A2011092A8011092A70181E00E948E
:10141000750110928701103F41F41093870170927B
:1014200082018091AA01886005C08092820180912A
:10143000AA01877F8093AA0182E891E062E357D8EE
:10144000109282011092870110928801809173019D
:1014500081FF11C08091A20180618093A2018091DF
:10146000A20187FF08C08091A4019091A5019093EB
:101470002601809325018091A4019091A50183709C
:101480002091A4013091A50120E030E090E0AC0172
:10149000B5E0440F551FBA95E1F7480F591FF90100
:1014A000EE59FE4F8081FA01E20FF31FE055FE4F27
:1014B00080832F5F3F4F2032310589F78091A4014F
:1014C0009091A501892BE9F4809125019091260145
:1014D000892BB9F08091A4019091A5018093870197
:1014E0008091A601809388019092820182E891E028
:1014F00062E30E947702109282011092870110929B
:1015000088018091A2018F778093A2018091A4012C
:101510009091A501019751F08091A4019091A501AE
:10152000892B71F48091A20184FF0AC08091A201ED
:101530008F7E8093A2018091A20184608093A2019A
:10154000789480914F01882359F09091AB0180915C
:101550004F01891718F45F98109A02C05F9A10988B
:101560008091A20182FF25C0F8948091A2018B7F17
:101570008093A2011092A6011092A8011092A701D7
:1015800080EB91E0ABDA9091A6019F5F9093A6016A
:10159000823029F48091A20180628093A20180911F
:1015A000A7019091A80101969093A8018093A701AB
:1015B0007894369B0AC08091A90184FF08C080916D
:1015C000A9018F7E8093A90102C080E006DC809192
:1015D000580190915901892B61F12091500130916E
:1015E000510180911D0190911E012817390708F1C2
:1015F0008091A90184FD1DC0F8944098109251017A
:101600001092500180915801909159010197909347
:101610005901809358018091580190915901892B6B
:1016200031F48091A30180FF02C080E0DEDC789479
:1016300008C0409A8091580190915901892B09F472
:10164000429A379B0AC08091A90185FF08C080910A
:10165000A9018F7D8093A90102C081E0BEDB80914A
:101660005A0190915B01892B61F1209152013091D7
:10167000530180911F01909120012817390708F12B
:101680008091A90185FD1DC0F894439810925301E3
:101690001092520180915A0190915B0101979093B1
:1016A0005B0180935A0180915A0190915B01892BD3
:1016B00031F48091A30181FF02C081E096DC78942F
:1016C00008C0439A80915A0190915B01892B09F4DB
:1016D000459A1E9B0AC08091A90186FF08C080918F
:1016E000A9018F7B8093A90102C082E076DB809103
:1016F0005C0190915D01892B61F120915401309141
:10170000550180912101909122012817390708F194
:101710008091A90186FD1DC0F8942898109255016A
:101720001092540180915C0190915D01019790931A
:101730005D0180935C0180915C0190915D01892B3A
:1017400031F48091A30182FF02C082E04EDC7894E4
:1017500008C0289A80915C0190915D01892B09F461
:101760002A9A1F9B0AC08091A90187FF08C0809117
:10177000A9018F778093A90102C083E02EDB8091BD
:101780005E0190915F01892B61F1209156013091AA
:10179000570180912301909124012817390708F1FE
:1017A0008091A90187FD1DC0F8942B9810925701D4
:1017B0001092560180915E0190915F010197909384
:1017C0005F0180935E0180915E0190915F01892BA2
:1017D00031F48091A30183FF02C083E006DC78949A
:1017E00008C02B9A80915E0190915F01892B09F4CA
:1017F0002D9A78948FB18FB180914D013ACDF894A4
:02180000FFCF18
:10180200543A0000477574656E20546167000056B3
:101812003A2000005553422E34303500401800184B
:101822000018001800FFFF4D4F004449004D4900C9
:10183200444F00465200534100534F0027012A01F2
:0A1842002D01300133013601390198
:00000001FF
