:10000000B0C00000CDC00000CBC00000C9C00000DF
:10001000C7C00000C5C00000C3C00000C1C00000D0
:10002000BFC00000BDC0000045C300007AC300008F
:10003000B7C00000B5C00000B3C0000012C500008A
:10004000AFC00000ADC00000ABC00000A9C0000000
:10005000A7C00000A5C00000A3C00000A1C0000010
:100060009FC000009DC000009BC0000099C0000020
:1000700097C0000095C0000093C0000091C0000030
:100080008FC000008DC000008BC0000089C0000040
:1000900087C0000085C0000000010000D1001200F0
:1000A000020000E30029002200000C011C002100D6
:1000B00000F5000900030000280104010309042CD5
:1000C00001220203090450011001C12601C02600CB
:1000D000001201000200000020C01680040001018F
:1000E00002000109022900010100C03209040000D8
:1000F0000203000000092111010001221C00070574
:1001000081032000020705020320000806ABFF0A56
:100110000002A1017508150026FF00952009018144
:1001200002952009029102C004030904220352002F
:1001300075006500640069005F00480065006900A3
:100140006D006C00690063006800650072000000CB
:10015000100343004E0043005F005500530042006F
:10016000000011241FBECFEFD0E2DEBFCDBF11E0F3
:10017000A0E0B1E0E2E6F8E100E00BBF02C00790CA
:100180000D92AA34B107D9F712E0AAE4B1E001C098
:100190001D92A433B107E1F70E94F8080C942F0CCC
:1001A0002FCF8091E80080FFFCCF089507C0EFEFCC
:1001B000FEE03197F1F700C0000001970097B9F712
:1001C00008958F9828E030E087FF02C08D9A01C023
:1001D0008D988F9A9AE69A95F1F700C08F982150E2
:1001E000304011F0880FF0CF08958E9A87E097E0A5
:1001F0000197F1F700C000008E9808958D9AF5DF01
:1002000087EC90E00197F1F700C000000895D9DF76
:10021000F5CFCF93DF93EC0101C0F9DF89918823FB
:10022000E1F7DF91CF9108958D98DFDF87EC90E0C3
:100230000197F1F700C0000008951F93DF93CF935B
:1002400000D0CDB7DEB7182F8FEF96E7A1E0815031
:100250009040A040E1F700C0000080E34A8369833A
:10026000B0DFE2DFAFE3BCE91197F1F700C00000B7
:1002700080E3A7DFD9DFBAE6BA95F1F700C080E3E3
:10028000A0DFD2DFEFE7F2E03197F1F700C0000026
:10029000812F97DFC9DF88E094DFC6DF81E091DF3F
:1002A000C3DF8FE79EE30197F1F700C0000069818B
:1002B000862F87DFB9DFAFE7BEE31197F1F700C004
:1002C00000004A81842F7DDFAFDF8FEF93EFA1E045
:1002D00081509040A040E1F700C000000F900F90C7
:1002E000CF91DF911F910895662311F4805801C0CA
:1002F000805467DF99CF81E064DF96DF82E090E091
:1003000055DF82E05EDF90DF82E090E04FCFCF9359
:10031000DF93C82F80E06C2FE7DFD4E180E277DF46
:10032000D150E1F780E06C2FDFDF82E090E03EDF2C
:10033000DF91CF91089581E88093D70080EA809380
:10034000D80086E189BD09B400FEFDCF80E9809325
:10035000D8001092E000109231028CE08093E2000D
:100360007894089520913102222309F4C9C02FB74F
:10037000F8946093320232E03093E9004091E80053
:1003800045FD0EC02FBF20913202222309F4BAC0CE
:1003900020913102222309F4B7C02FB7F894ECCF93
:1003A0003091F100FC0131933091F100DC011196A4
:1003B0003C93DF0111968091F1008183FD0131961C
:1003C0008091F10011968C93DF0111968091F100DC
:1003D0008183FD0131968091F10011968C93DF01AC
:1003E00011968091F1008183FD0131968091F10099
:1003F00011968C93DF0111968091F1008183FD01AC
:1004000031968091F10011968C93DF0111968091C5
:10041000F1008183FD0131968091F10011968C935A
:10042000DF0111968091F1008183FD013196809169
:10043000F10011968C93DF0111968091F100818378
:10044000FD0131968091F10011968C93DF01119698
:100450008091F1008183FD0131968091F100119628
:100460008C93DF0111968091F1008183FD0131961B
:100470008091F10011968C93DF0111968091F1002B
:100480008183FD0131968091F10011968C93DF01FB
:1004900011968091F1008183FD0131968091F100E8
:1004A00011968C93DF0111968091F1008183FD01FB
:1004B00031968091F10011968C93DF011196809115
:1004C000F1008183FD0131968091F10011968C93AA
:1004D000DF0111968091F1008183FD0131968091B9
:1004E000F10011968C9311978091F1008183809196
:1004F000F10082838BE68093E8002FBF80E20895AD
:100500008FEF089580E008958FEF089520913102D4
:10051000222309F4C9C02FB7F8946093330231E065
:100520003093E9004091E80045FD0EC02FBF2091B7
:100530003302222309F4BAC020913102222309F4A4
:10054000B7C02FB7F894ECCFFC0131913093F10094
:10055000DC0111968C918093F100DF01119681816D
:100560008093F100FD01319611968C918093F100FA
:10057000DF01119681818093F100FD013196119682
:100580008C918093F100DF01119681818093F100BD
:10059000FD01319611968C918093F100DF01119647
:1005A00081818093F100FD01319611968C918093A9
:1005B000F100DF01119681818093F100FD013196F8
:1005C00011968C918093F100DF01119681818093C7
:1005D000F100FD01319611968C918093F100DF01BD
:1005E000119681818093F100FD01319611968C91D5
:1005F0008093F100DF01119681818093F100FD016C
:10060000319611968C918093F100DF0111968181D2
:100610008093F100FD01319611968C918093F10049
:10062000DF01119681818093F100FD0131961196D1
:100630008C918093F100DF01119681818093F1000C
:10064000FD01319611968C918093F100DF01119696
:1006500081818093F100FD01319611968C918093F8
:10066000F100DF01119681818093F100FD01319647
:1006700011968C918093F100DF0111968181809316
:10068000F100FD01319611968C9111978093F10044
:1006900081818093F10082818093F1008AE38093CD
:1006A000E8002FBF80E208958FEF089580E008955D
:1006B0008FEF08951F920F920FB60F9211248F9310
:1006C0009F938091E1001092E10083FF0FC0109290
:1006D000E90091E09093EB001092EC0092E290938D
:1006E000ED0098E09093F0001092310282FF12C06A
:1006F00080913102882371F080913202882319F0B1
:1007000081508093320280913302882319F0815006
:10071000809333029F918F910F900FBE0F901F9087
:1007200018951F920F920FB60F920BB60F921124CD
:10073000EF92FF920F931F932F933F934F935F93EB
:100740006F937F938F939F93AF93BF93EF93FF9399
:10075000DF93CF930F92CDB7DEB71092E90080916F
:10076000E80083FF2AC12091F1003091F10000914F
:10077000F10010E04091F100942F80E0082B192B3C
:10078000E090F100FF244091F100942F80E0E82AEE
:10079000F92A6091F100A091F10082EF8093E800C6
:1007A000363009F059C08FE990E09C012550304067
:1007B000FC0137974591549140175107F9F4F9011D
:1007C000459154914E155F05C9F42E5F3F4FF901D5
:1007D000859194912E5F3F4FF9012491462F50E06F
:1007E0007A2F60E0462B572B4F3F510519F010F040
:1007F0004FEF50E0421750F4242F08C00796295FAE
:100800003F4FF0E0803D9F0799F6D7C0AEEF409193
:10081000E80050E0BA016570707061157105B9F3B8
:1008200042FDCEC0322F213208F030E2AC01632FFE
:1008300007C0FA014F5F5F4FE491E093F100615010
:100840006623B9F7830F911D231BA093E800222391
:10085000F1F63032E1F2B4C0353041F48EEF8093DE
:10086000E8009FDC00680093E300AAC0393031F54E
:10087000222309F06BC0009331028EEF8093E800D1
:1008800041E089EC90E04093E900FC010196E4919D
:10089000E093EB00EE2369F09C012F5F3F4FFC01DA
:1008A00084918093EC00C9010196F9012491209371
:1008B000ED004F5F453039F78EE143C0383049F4E1
:1008C000203809F043C06DDC809131028093F10043
:1008D00070C03323A9F4298364DC2981223851F4C0
:1008E000E092E9009091EB0081E095FF80E01092AA
:1008F000E90001C080E08093F1001092F10059C03E
:10090000313011F0333011F5223001F501151105A8
:10091000E9F44E2D4F77842F81508430B8F48EEF58
:100920008093E8004093E900333009F446C089E140
:100930008093EB0081E090E002C0880F991F4A95F8
:10094000E2F78093EA001092EA003AC0E114F10461
:10095000A1F5213A11F5313081F540E25EEF809149
:10096000E80090E09C012570307021153105B9F345
:1009700082FD26C0842F413208F080E2982F03C008
:100980001092F10091509923D9F7481B5093E80039
:10099000442329F7803219F313C0213271F439301E
:1009A00061F48091E80082FFFCCF8BEF8093E80038
:1009B000F8DB8EEF8093E80003C081E28093EB00C8
:1009C0000F90CF91DF91FF91EF91BF91AF919F91E8
:1009D0008F917F916F915F914F913F912F911F91D7
:1009E0000F91FF90EF900F900BBE0F900FBE0F90E6
:1009F0001F901895389A409A399A419A3A9A429A91
:100A00003B9A439A3C9A449A3D9A459A209A289A4E
:100A1000219A419A229A2A9A239A2B9A249A2C9ABA
:100A2000259A2D9A8098889A859A869A879A4698C8
:100A3000469A4798479A26982E9A27982F9A849AEA
:100A40008C9A579A5F98549A5C98089507C0EFEF74
:100A5000FEE03197F1F700C0000001970097B9F769
:100A600008951F920F920FB60F9211248F939F93A8
:100A70008091600190916101019690936101809352
:100A8000600180916001909161018E309105A0F12B
:100A90008091500190915101019690935101809362
:100AA000500180915201909153010196909353010E
:100AB0008093520180915401909155010196909339
:100AC00055018093540180915601909157010196F0
:100AD000909357018093560180914F01882331F004
:100AE00080912F028F5F80932F0202C010922F02FD
:100AF00010926101109260018AE08093B2009F9190
:100B00008F910F900FBE0F901F901895FC01818957
:100B100081FD02C0817001C082E0109230024298D3
:100B200010925101109250014081218127FF07C08E
:100B300090913002916090933002419806C090915C
:100B400030029E7F90933002419A2F7730E03093AD
:100B50005901209358012091580130915901322FA9
:100B60002227309359012093580120915801309148
:100B70005901240F311D309359012093580194815C
:100B8000258130E030931E0120931D0120911D012D
:100B900030911E01322F222730931E0120931D0118
:100BA00020911D0130911E01290F311D30931E012E
:100BB00020931D01109253011092520145984281D9
:100BC000238127FF07C090913002926090933002FA
:100BD000449806C0909130029D7F90933002449AD1
:100BE0002F7730E030935B0120935A0120915A0116
:100BF00030915B01322F222730935B0120935A0101
:100C000020915A0130915B01240F311D30935B011B
:100C100020935A01378120E09681290F311D3093AE
:100C2000200120931F012A9810925501109254011F
:100C30004085218527FF07C09091300294609093F2
:100C40003002299806C0909130029B7F9093300229
:100C5000299A2F7730E030935D0120935C01209139
:100C60005C0130915D01322F222730935D0120938A
:100C70005C0120915C0130915D01240F311D3093A6
:100C80005D0120935C019485258530E0309322013D
:100C9000209321012091210130912201322F22271E
:100CA00030932201209321012091210130912201D2
:100CB000290F311D30932201209321012D9810928C
:100CC0005701109256014285238527FF07C0909156
:100CD00030029860909330022C9806C090913002B8
:100CE000977F909330022C9A2F7730E030935F01FA
:100CF00020935E0120915E0130915F01322F222707
:100D000030935F0120935E0120915E0130915F017D
:100D1000240F311D30935F0120935E019685278556
:100D200030E030932401209323012091230130915E
:100D30002401322F22273093240120932301209174
:100D4000230130912401290F311D30932401209378
:100D500023011092A3014091580150915901209113
:100D60005A0130915B012417350730F54091580145
:100D70005091590120915C0130915D012417350794
:100D800078F4409158015091590120915E013091C1
:100D90005F012417350750F59091A301916038C089
:100DA00040915C0150915D0120915E0130915F01A5
:100DB00024173507D8F429C040915A0150915B019E
:100DC00020915C0130915D012417350798F4409122
:100DD0005A0150915B0120915E0130915F0124170F
:100DE000350720F49091A301926012C09091A30165
:100DF00098600EC040915C0150915D0120915E01B0
:100E000030915F012417350730F49091A30194606D
:100E10009093A30108959091A30198609093A301EA
:100E20000895CF93C82F20913002482F50E030E032
:100E3000082E02C0359527950A94E2F7BA016C5F37
:100E40007F4F20FFD8C020912D0230E0062E02C037
:100E5000359527950A94E2F720FDE5C0F894809136
:100E60002D0221E030E0F90102C0EE0FFF1F6A956C
:100E7000E2F78E2B80932D0280912E0283FF46C0D5
:100E80008C2F8B548093820160912E02C9010C2E0D
:100E900002C0880F991F0A94E2F7682B60932E0214
:100EA0004E5F5F4FC230C8F488B102C0220F331FBB
:100EB0004A95E2F7822B88B9109259011092580195
:100EC00010925B0110925A01109251011092500140
:100ED000109253011092520165C085B102C0220FD9
:100EE000331F4A95E2F7822B85B910925D0110926B
:100EF0005C0110925F0110925E01109255011092F8
:100F0000540110925701109256014CC010922E02BB
:100F10008C2F8B55809382014E5F5F4FC23060F4FF
:100F200088B102C0220F331F4A95E2F7822B88B99D
:100F300085B18E2B85B912C085B1B90102C0660F8B
:100F4000771F4A95E2F7862B85B988B10C2E02C02F
:100F5000220F331F0A94E2F7822B88B910925901AD
:100F60001092580110925B0110925A0110925D018B
:100F700010925C0110925F0110925E01109251017B
:100F8000109250011092530110925201109255018B
:100F90001092540110925701109256011092A6011E
:100FA0001092A3018091A4019091A50180938701E3
:100FB0008091A6018093880180912E0280938901FF
:100FC00082E891E062E3A2DA109282011092870136
:100FD00010928801109289018091300221E030E066
:100FE00002C0220F331FCA95E2F7209528232093D1
:100FF0003002789418C080912D0290E0062E02C035
:10100000959587950A94E2F780FD0DC020912D02F9
:1010100081E090E002C0880F991F6A95E2F7809501
:10102000822380932D02CF910895CF93C82F68B16A
:10103000482F50E0CA01029621E030E0F90102C0D9
:10104000EE0FFF1F8A95E2F7CF016E2B68B99091E2
:101050002E02C23060F498B1982B98B910925901C1
:101060001092580110925B0110925A0111C095B173
:101070000C2E02C0220F331F0A94E2F7922B95B96F
:1010800010925D0110925C0110925F0110925E015E
:1010900098B1982B98B9109259011092580110925A
:1010A0005B0110925A01109251011092500110925E
:1010B00053011092520165B121E030E0C9010C2EBC
:1010C00002C0880F991F0A94E2F7682B65B9109245
:1010D0005D0110925C0110925F0110925E0110920E
:1010E00055011092540110925701109256018091AF
:1010F000A4019091A50160912501709126018617A8
:101100009707C9F51092A20180912D024C5F5F4FA5
:1011100002C0220F331F4A95E2F72095282320931F
:101120002D021092A301C655C09382018091A401A3
:101130009091A501809383018091A4019091A501D4
:10114000809387018091A6018093880180912E026F
:101150008093890182E891E062E3D8D910928201FC
:1011600010928301109287011092880110928901D8
:101170001092A6013BC08091A601837021E2829F5C
:1011800090011124C90187559E4FC0DC823049F47B
:101190008091A4019091A50190932601809325014F
:1011A00017C02091A4013091A5012093870180915F
:1011B000A60180938801C056C093820182E891E025
:1011C00062E3A4D9109282011092870110928801E3
:1011D0008091A6018F5F8093A6018091A7019091D5
:1011E000A80101969093A8018093A701CF9108953B
:1011F0004F925F927F928F929F92AF92BF92CF92C7
:10120000DF92EF92FF920F931F93DF93CF930F9292
:10121000CDB7DEB780E880936100109261008BD873
:10122000809131028823E1F38FEF93EDA0E38150A9
:101230009040A040E1F700C000007894DBDB88E339
:1012400066E04CE00E941D0184E091E00E940901EB
:1012500084E690E0FBDB4FD88FE091E00E9409012B
:1012600084E191E00E94090181E051D81092B2001E
:101270008091B10081608093B100809170008160A5
:10128000809370001092B00078944424552400E1BB
:10129000D02E13E3C12EB5EEBB2EAFEAAA2E0FEF70
:1012A0001FEFF4E49F2EE5E48E2E71EE772E089466
:1012B000411C511C9FEF49169FEA590629F481B33E
:1012C0008D2581BB4424552482E691E060E04AD814
:1012D00018160CF066C1F894709172017093870132
:1012E000C092820182E891E062E379830FD9109283
:1012F000820110928701109288017981723E09F46F
:1013000047C0743E09F44FC0703E09F05CC01092B3
:10131000A2011092A301709282018091A401909188
:10132000A501809387018091A6018093880182E8BE
:1013300091E062E3EBD81092820110928701109243
:1013400088011092A6011092A8011092A701109294
:1013500059011092580110925B0110925A0110929B
:101360005D0110925C0110925F0110925E0110927B
:10137000510110925001109253011092520110929B
:10138000550110925401109257011092560108C154
:101390008091760180934F0180914F01882309F05D
:1013A000FFC05F98FDC080916A01882311F05C9AAC
:1013B00001C05C98B0928201109282011092870164
:1013C00010928801EDC08091740120917501F82E72
:1013D000EE24F092A501E092A4018091A4019091E5
:1013E000A501820F911D9093A5018093A401809186
:1013F000760180934F018091A4019091A5010097FF
:1014000089F054C0FA01E20FF31FE755FE4F108236
:101410002F5F3F4F20323105A9F7019684309105A7
:1014200019F40DC080E090E020E030E0AC0165E010
:10143000440F551F6A95E1F7480F591FE3CF1092EB
:10144000A601109326010093250110922D021092FF
:10145000A3011092A2018091A20180688093A20151
:101460001092A8011092A70181E079830E94870160
:10147000109287017981703F41F4709387018092C7
:10148000820180912E02886005C090928201809135
:101490002E02877F80932E0282E891E062E336D8A5
:1014A000109282011092870110928801809173013D
:1014B00081FF11C08091A20180618093A20180917F
:1014C000A20187FF08C08091A4019091A50190938B
:1014D0002601809325014091A4015091A5014370FC
:1014E0008091A4019091A50180E090E050E09A01E4
:1014F000B5E0220F331FBA95E1F7240F351FFC0129
:10150000EE59FE4F4081F901E80FF91FE755FE4FF4
:10151000408301968032910591F78091A4019091CA
:10152000A5010097E9F4809125019091260100978B
:10153000B9F08091A4019091A501809387018091D9
:10154000A60180938801A092820182E891E062E383
:101550000E948602109282011092870110928801E7
:101560008091A2018F778093A2018091A401909134
:10157000A5018130910551F08091A4019091A501C0
:10158000009771F48091A20184FF0AC08091A201AA
:101590008F7E8093A2018091A20184608093A2013A
:1015A000789480914F01882359F090912F02809177
:1015B0004F01891718F45F98109A02C05F9A10982B
:1015C0008091A20182FF25C0F8948091A2018B7FB7
:1015D0008093A2011092A6011092A8011092A70177
:1015E00089EA91E093DA9091A6019F5F9093A6011A
:1015F000823029F48091A20180628093A2018091BF
:10160000A7019091A80101969093A8018093A7014A
:101610007894369B0AC080912D0284FF08C0809187
:101620002D028F7E80932D0202C080E0FADB809134
:10163000580190915901009761F12091500130912A
:10164000510180911D0190911E012817390708F161
:1016500080912D0284FD1DC0F89440981092510194
:1016600010925001809158019091590101979093E7
:101670005901809358018091580190915901009728
:1016800031F48091A30180FF02C080E0CEDC789429
:1016900008C0409A8091580190915901009709F42F
:1016A000429A379B0AC080912D0285FF08C0809125
:1016B0002D028F7D80932D0202C081E0B2DB8091EC
:1016C0005A0190915B01009761F120915201309194
:1016D000530180911F01909120012817390708F1CB
:1016E00080912D0285FD1DC0F894439810925301FE
:1016F0001092520180915A0190915B010197909351
:101700005B0180935A0180915A0190915B0100978F
:1017100031F48091A30181FF02C081E086DC7894DE
:1017200008C0439A80915A0190915B01009709F497
:10173000459A1E9B0AC080912D0286FF08C08091A9
:101740002D028F7B80932D0202C082E06ADB8091A4
:101750005C0190915D01009761F1209154013091FD
:10176000550180912101909122012817390708F134
:1017700080912D0286FD1DC0F89428981092550185
:101780001092540180915C0190915D0101979093BA
:101790005D0180935C0180915C0190915D010097F7
:1017A00031F48091A30182FF02C082E03EDC789494
:1017B00008C0289A80915C0190915D01009709F41E
:1017C0002A9A1F9B0AC080912D0287FF08C0809132
:1017D0002D028F7780932D0202C083E022DB80915F
:1017E0005E0190915F01009761F120915601309167
:1017F000570180912301909124012817390708F19E
:1018000080912D0287FD1DC0F8942B9810925701EE
:101810001092560180915E0190915F010197909323
:101820005F0180935E0180915E0190915F0100975E
:1018300031F48091A30183FF02C083E0F6DB78944A
:1018400008C02B9A80915E0190915F01009709F486
:101850002D9A78948FB18FB180914D0128CDF89455
:02186000FFCFB8
:10186200543A0000477574656E2054616700005653
:101872003A2000005553422E3430350040180018EB
:101882000018001800FFFF4D4F004449004D490069
:10189200444F00465200534100534F0027012A0192
:0A18A2002D01300133013601390138
:00000001FF
